:10A00000314000420C43B01258A0924342013D40FF
:10A0100046012C4D1C93FD233041824342013D40BB
:10A0200046012C4D0C93FD2330410A1209120812EF
:10A03000084D3A4040018A4C000039400AA089127C
:10A040008A4800003A401AA08A1289121942440133
:10A050008A120C49304096A00A12091208120712FF
:10A06000B240805A2001F243220039402AA07740B2
:10A070004000784021004A430D470C4A8912C84CE1
:10A0800000001A533A908000F723304076A0344104
:0EA09000354136413741384139413A4130417E
:02FFFE0000A061
:040000030000A00059
:00000001FF
